{
    "_format": "hh-sol-artifact-1",
    "contractName": "LestonzNFT",
    "sourceName": "contracts/LestonzNFT.sol",
    "abi": [
        {
            "inputs": [],
            "stateMutability": "nonpayable",
            "type": "constructor"
        },
        {
            "inputs": [],
            "name": "ApprovalCallerNotOwnerNorApproved",
            "type": "error"
        },
        {
            "inputs": [],
            "name": "ApprovalQueryForNonexistentToken",
            "type": "error"
        },
        {
            "inputs": [],
            "name": "BalanceQueryForZeroAddress",
            "type": "error"
        },
        {
            "inputs": [],
            "name": "MintERC2309QuantityExceedsLimit",
            "type": "error"
        },
        {
            "inputs": [],
            "name": "MintToZeroAddress",
            "type": "error"
        },
        {
            "inputs": [],
            "name": "MintZeroQuantity",
            "type": "error"
        },
        {
            "inputs": [],
            "name": "OwnerQueryForNonexistentToken",
            "type": "error"
        },
        {
            "inputs": [],
            "name": "OwnershipNotInitializedForExtraData",
            "type": "error"
        },
        {
            "inputs": [],
            "name": "TransferCallerNotOwnerNorApproved",
            "type": "error"
        },
        {
            "inputs": [],
            "name": "TransferFromIncorrectOwner",
            "type": "error"
        },
        {
            "inputs": [],
            "name": "TransferToNonERC721ReceiverImplementer",
            "type": "error"
        },
        {
            "inputs": [],
            "name": "TransferToZeroAddress",
            "type": "error"
        },
        {
            "inputs": [],
            "name": "URIQueryForNonexistentToken",
            "type": "error"
        },
        {
            "anonymous": false,
            "inputs": [
                {
                    "indexed": true,
                    "internalType": "address",
                    "name": "owner",
                    "type": "address"
                },
                {
                    "indexed": true,
                    "internalType": "address",
                    "name": "approved",
                    "type": "address"
                },
                {
                    "indexed": true,
                    "internalType": "uint256",
                    "name": "tokenId",
                    "type": "uint256"
                }
            ],
            "name": "Approval",
            "type": "event"
        },
        {
            "anonymous": false,
            "inputs": [
                {
                    "indexed": true,
                    "internalType": "address",
                    "name": "owner",
                    "type": "address"
                },
                {
                    "indexed": true,
                    "internalType": "address",
                    "name": "operator",
                    "type": "address"
                },
                {
                    "indexed": false,
                    "internalType": "bool",
                    "name": "approved",
                    "type": "bool"
                }
            ],
            "name": "ApprovalForAll",
            "type": "event"
        },
        {
            "anonymous": false,
            "inputs": [
                {
                    "indexed": true,
                    "internalType": "uint256",
                    "name": "fromTokenId",
                    "type": "uint256"
                },
                {
                    "indexed": false,
                    "internalType": "uint256",
                    "name": "toTokenId",
                    "type": "uint256"
                },
                {
                    "indexed": true,
                    "internalType": "address",
                    "name": "from",
                    "type": "address"
                },
                {
                    "indexed": true,
                    "internalType": "address",
                    "name": "to",
                    "type": "address"
                }
            ],
            "name": "ConsecutiveTransfer",
            "type": "event"
        },
        {
            "anonymous": false,
            "inputs": [
                {
                    "indexed": true,
                    "internalType": "address",
                    "name": "previousOwner",
                    "type": "address"
                },
                {
                    "indexed": true,
                    "internalType": "address",
                    "name": "newOwner",
                    "type": "address"
                }
            ],
            "name": "OwnershipTransferred",
            "type": "event"
        },
        {
            "anonymous": false,
            "inputs": [
                {
                    "indexed": true,
                    "internalType": "address",
                    "name": "from",
                    "type": "address"
                },
                {
                    "indexed": true,
                    "internalType": "address",
                    "name": "to",
                    "type": "address"
                },
                {
                    "indexed": true,
                    "internalType": "uint256",
                    "name": "tokenId",
                    "type": "uint256"
                }
            ],
            "name": "Transfer",
            "type": "event"
        },
        {
            "inputs": [
                {
                    "internalType": "string",
                    "name": "_uriExtantion",
                    "type": "string"
                }
            ],
            "name": "URIExtantionUpdate",
            "outputs": [],
            "stateMutability": "nonpayable",
            "type": "function"
        },
        {
            "inputs": [
                {
                    "internalType": "string",
                    "name": "_uri",
                    "type": "string"
                }
            ],
            "name": "URIUpdate",
            "outputs": [],
            "stateMutability": "nonpayable",
            "type": "function"
        },
        {
            "inputs": [
                {
                    "internalType": "address",
                    "name": "to",
                    "type": "address"
                },
                {
                    "internalType": "uint256",
                    "name": "tokenId",
                    "type": "uint256"
                }
            ],
            "name": "approve",
            "outputs": [],
            "stateMutability": "payable",
            "type": "function"
        },
        {
            "inputs": [
                {
                    "internalType": "address",
                    "name": "owner",
                    "type": "address"
                }
            ],
            "name": "balanceOf",
            "outputs": [
                {
                    "internalType": "uint256",
                    "name": "",
                    "type": "uint256"
                }
            ],
            "stateMutability": "view",
            "type": "function"
        },
        {
            "inputs": [
                {
                    "internalType": "uint256",
                    "name": "_cost",
                    "type": "uint256"
                }
            ],
            "name": "changeCost",
            "outputs": [],
            "stateMutability": "nonpayable",
            "type": "function"
        },
        {
            "inputs": [],
            "name": "cost",
            "outputs": [
                {
                    "internalType": "uint256",
                    "name": "",
                    "type": "uint256"
                }
            ],
            "stateMutability": "view",
            "type": "function"
        },
        {
            "inputs": [
                {
                    "internalType": "uint256",
                    "name": "tokenId",
                    "type": "uint256"
                }
            ],
            "name": "getApproved",
            "outputs": [
                {
                    "internalType": "address",
                    "name": "",
                    "type": "address"
                }
            ],
            "stateMutability": "view",
            "type": "function"
        },
        {
            "inputs": [
                {
                    "internalType": "address",
                    "name": "owner",
                    "type": "address"
                },
                {
                    "internalType": "address",
                    "name": "operator",
                    "type": "address"
                }
            ],
            "name": "isApprovedForAll",
            "outputs": [
                {
                    "internalType": "bool",
                    "name": "",
                    "type": "bool"
                }
            ],
            "stateMutability": "view",
            "type": "function"
        },
        {
            "inputs": [],
            "name": "maxMintPerTx",
            "outputs": [
                {
                    "internalType": "uint256",
                    "name": "",
                    "type": "uint256"
                }
            ],
            "stateMutability": "view",
            "type": "function"
        },
        {
            "inputs": [
                {
                    "internalType": "uint256",
                    "name": "_amount",
                    "type": "uint256"
                }
            ],
            "name": "maxMintPerTxUpdate",
            "outputs": [],
            "stateMutability": "nonpayable",
            "type": "function"
        },
        {
            "inputs": [],
            "name": "maxSupply",
            "outputs": [
                {
                    "internalType": "uint256",
                    "name": "",
                    "type": "uint256"
                }
            ],
            "stateMutability": "view",
            "type": "function"
        },
        {
            "inputs": [
                {
                    "internalType": "uint256",
                    "name": "_mintAmount",
                    "type": "uint256"
                }
            ],
            "name": "mint",
            "outputs": [],
            "stateMutability": "payable",
            "type": "function"
        },
        {
            "inputs": [
                {
                    "internalType": "uint256",
                    "name": "_amount",
                    "type": "uint256"
                },
                {
                    "internalType": "address",
                    "name": "_reciever",
                    "type": "address"
                }
            ],
            "name": "mintForOwner",
            "outputs": [],
            "stateMutability": "nonpayable",
            "type": "function"
        },
        {
            "inputs": [],
            "name": "name",
            "outputs": [
                {
                    "internalType": "string",
                    "name": "",
                    "type": "string"
                }
            ],
            "stateMutability": "view",
            "type": "function"
        },
        {
            "inputs": [],
            "name": "owner",
            "outputs": [
                {
                    "internalType": "address",
                    "name": "",
                    "type": "address"
                }
            ],
            "stateMutability": "view",
            "type": "function"
        },
        {
            "inputs": [
                {
                    "internalType": "uint256",
                    "name": "tokenId",
                    "type": "uint256"
                }
            ],
            "name": "ownerOf",
            "outputs": [
                {
                    "internalType": "address",
                    "name": "",
                    "type": "address"
                }
            ],
            "stateMutability": "view",
            "type": "function"
        },
        {
            "inputs": [],
            "name": "renounceOwnership",
            "outputs": [],
            "stateMutability": "nonpayable",
            "type": "function"
        },
        {
            "inputs": [
                {
                    "internalType": "address",
                    "name": "from",
                    "type": "address"
                },
                {
                    "internalType": "address",
                    "name": "to",
                    "type": "address"
                },
                {
                    "internalType": "uint256",
                    "name": "tokenId",
                    "type": "uint256"
                }
            ],
            "name": "safeTransferFrom",
            "outputs": [],
            "stateMutability": "payable",
            "type": "function"
        },
        {
            "inputs": [
                {
                    "internalType": "address",
                    "name": "from",
                    "type": "address"
                },
                {
                    "internalType": "address",
                    "name": "to",
                    "type": "address"
                },
                {
                    "internalType": "uint256",
                    "name": "tokenId",
                    "type": "uint256"
                },
                {
                    "internalType": "bytes",
                    "name": "_data",
                    "type": "bytes"
                }
            ],
            "name": "safeTransferFrom",
            "outputs": [],
            "stateMutability": "payable",
            "type": "function"
        },
        {
            "inputs": [
                {
                    "internalType": "address",
                    "name": "operator",
                    "type": "address"
                },
                {
                    "internalType": "bool",
                    "name": "approved",
                    "type": "bool"
                }
            ],
            "name": "setApprovalForAll",
            "outputs": [],
            "stateMutability": "nonpayable",
            "type": "function"
        },
        {
            "inputs": [
                {
                    "internalType": "bytes4",
                    "name": "interfaceId",
                    "type": "bytes4"
                }
            ],
            "name": "supportsInterface",
            "outputs": [
                {
                    "internalType": "bool",
                    "name": "",
                    "type": "bool"
                }
            ],
            "stateMutability": "view",
            "type": "function"
        },
        {
            "inputs": [],
            "name": "symbol",
            "outputs": [
                {
                    "internalType": "string",
                    "name": "",
                    "type": "string"
                }
            ],
            "stateMutability": "view",
            "type": "function"
        },
        {
            "inputs": [
                {
                    "internalType": "uint256",
                    "name": "_tokenId",
                    "type": "uint256"
                }
            ],
            "name": "tokenURI",
            "outputs": [
                {
                    "internalType": "string",
                    "name": "",
                    "type": "string"
                }
            ],
            "stateMutability": "view",
            "type": "function"
        },
        {
            "inputs": [],
            "name": "totalSupply",
            "outputs": [
                {
                    "internalType": "uint256",
                    "name": "",
                    "type": "uint256"
                }
            ],
            "stateMutability": "view",
            "type": "function"
        },
        {
            "inputs": [
                {
                    "internalType": "address",
                    "name": "from",
                    "type": "address"
                },
                {
                    "internalType": "address",
                    "name": "to",
                    "type": "address"
                },
                {
                    "internalType": "uint256",
                    "name": "tokenId",
                    "type": "uint256"
                }
            ],
            "name": "transferFrom",
            "outputs": [],
            "stateMutability": "payable",
            "type": "function"
        },
        {
            "inputs": [
                {
                    "internalType": "address",
                    "name": "newOwner",
                    "type": "address"
                }
            ],
            "name": "transferOwnership",
            "outputs": [],
            "stateMutability": "nonpayable",
            "type": "function"
        },
        {
            "inputs": [],
            "name": "uri",
            "outputs": [
                {
                    "internalType": "string",
                    "name": "",
                    "type": "string"
                }
            ],
            "stateMutability": "view",
            "type": "function"
        },
        {
            "inputs": [],
            "name": "uriExtantion",
            "outputs": [
                {
                    "internalType": "string",
                    "name": "",
                    "type": "string"
                }
            ],
            "stateMutability": "view",
            "type": "function"
        },
        {
            "inputs": [
                {
                    "internalType": "address",
                    "name": "_owner",
                    "type": "address"
                }
            ],
            "name": "walletControl",
            "outputs": [
                {
                    "internalType": "uint256[]",
                    "name": "",
                    "type": "uint256[]"
                }
            ],
            "stateMutability": "view",
            "type": "function"
        },
        {
            "inputs": [],
            "name": "withdraw",
            "outputs": [],
            "stateMutability": "nonpayable",
            "type": "function"
        }
    ],
    "bytecode": "0x60806040526040518060600160405280603681526020016200373a60369139600a90805190602001906200003592919062000262565b506040518060400160405280600581526020017f2e6a736f6e000000000000000000000000000000000000000000000000000000815250600b90805190602001906200008392919062000262565b50666a94d74f430000600c556005600d556002600e55348015620000a657600080fd5b506040518060400160405280600a81526020017f4c6573746f6e7a4e4654000000000000000000000000000000000000000000008152506040518060400160405280600681526020017f4c53544e4654000000000000000000000000000000000000000000000000000081525081600290805190602001906200012b92919062000262565b5080600390805190602001906200014492919062000262565b50620001556200018b60201b60201c565b60008190555050506200017d620001716200019460201b60201c565b6200019c60201b60201c565b600160098190555062000377565b60006001905090565b600033905090565b6000600860009054906101000a900473ffffffffffffffffffffffffffffffffffffffff16905081600860006101000a81548173ffffffffffffffffffffffffffffffffffffffff021916908373ffffffffffffffffffffffffffffffffffffffff1602179055508173ffffffffffffffffffffffffffffffffffffffff168173ffffffffffffffffffffffffffffffffffffffff167f8be0079c531659141344cd1fd0a4f28419497f9722a3daafe3b4186f6b6457e060405160405180910390a35050565b828054620002709062000312565b90600052602060002090601f016020900481019282620002945760008555620002e0565b82601f10620002af57805160ff1916838001178555620002e0565b82800160010185558215620002e0579182015b82811115620002df578251825591602001919060010190620002c2565b5b509050620002ef9190620002f3565b5090565b5b808211156200030e576000816000905550600101620002f4565b5090565b600060028204905060018216806200032b57607f821691505b6020821081141562000342576200034162000348565b5b50919050565b7f4e487b7100000000000000000000000000000000000000000000000000000000600052602260045260246000fd5b6133b380620003876000396000f3fe6080604052600436106101cd5760003560e01c806395d89b41116100f7578063ca74671711610095578063e985e9c511610064578063e985e9c51461060b578063eac989f814610648578063f2fde38b14610673578063fcc8ca701461069c576101cd565b8063ca74671714610561578063cc67ced61461058c578063d5abeb01146105b5578063de7fcb1d146105e0576101cd565b8063a0712d68116100d1578063a0712d68146104c3578063a22cb465146104df578063b88d4fde14610508578063c87b56dd14610524576101cd565b806395d89b411461044657806397142cd1146104715780639dadc2f61461049a576101cd565b80633ccfd60b1161016f5780636352211e1161013e5780636352211e1461038a57806370a08231146103c7578063715018a6146104045780638da5cb5b1461041b576101cd565b80633ccfd60b146103055780633fcf79dc1461031c57806342842e0e146103455780635cb85cd214610361576101cd565b8063095ea7b3116101ab578063095ea7b31461027757806313faede61461029357806318160ddd146102be57806323b872dd146102e9576101cd565b806301ffc9a7146101d257806306fdde031461020f578063081812fc1461023a575b600080fd5b3480156101de57600080fd5b506101f960048036038101906101f491906126d9565b6106d9565b6040516102069190612bc7565b60405180910390f35b34801561021b57600080fd5b5061022461076b565b6040516102319190612be2565b60405180910390f35b34801561024657600080fd5b50610261600480360381019061025c919061277c565b6107fd565b60405161026e9190612b3e565b60405180910390f35b610291600480360381019061028c9190612699565b61087c565b005b34801561029f57600080fd5b506102a86109c0565b6040516102b59190612d04565b60405180910390f35b3480156102ca57600080fd5b506102d36109c6565b6040516102e09190612d04565b60405180910390f35b61030360048036038101906102fe9190612583565b6109dd565b005b34801561031157600080fd5b5061031a610d02565b005b34801561032857600080fd5b50610343600480360381019061033e91906127a9565b610dd0565b005b61035f600480360381019061035a9190612583565b610e90565b005b34801561036d57600080fd5b506103886004803603810190610383919061277c565b610eb0565b005b34801561039657600080fd5b506103b160048036038101906103ac919061277c565b610ec2565b6040516103be9190612b3e565b60405180910390f35b3480156103d357600080fd5b506103ee60048036038101906103e99190612516565b610ed4565b6040516103fb9190612d04565b60405180910390f35b34801561041057600080fd5b50610419610f8d565b005b34801561042757600080fd5b50610430610fa1565b60405161043d9190612b3e565b60405180910390f35b34801561045257600080fd5b5061045b610fcb565b6040516104689190612be2565b60405180910390f35b34801561047d57600080fd5b5061049860048036038101906104939190612733565b61105d565b005b3480156104a657600080fd5b506104c160048036038101906104bc919061277c565b61107f565b005b6104dd60048036038101906104d8919061277c565b611091565b005b3480156104eb57600080fd5b5061050660048036038101906105019190612659565b6111dc565b005b610522600480360381019061051d91906125d6565b6112e7565b005b34801561053057600080fd5b5061054b6004803603810190610546919061277c565b61135a565b6040516105589190612be2565b60405180910390f35b34801561056d57600080fd5b5061057661142a565b6040516105839190612be2565b60405180910390f35b34801561059857600080fd5b506105b360048036038101906105ae9190612733565b6114b8565b005b3480156105c157600080fd5b506105ca6114da565b6040516105d79190612d04565b60405180910390f35b3480156105ec57600080fd5b506105f56114e0565b6040516106029190612d04565b60405180910390f35b34801561061757600080fd5b50610632600480360381019061062d9190612543565b6114e6565b60405161063f9190612bc7565b60405180910390f35b34801561065457600080fd5b5061065d61157a565b60405161066a9190612be2565b60405180910390f35b34801561067f57600080fd5b5061069a60048036038101906106959190612516565b611608565b005b3480156106a857600080fd5b506106c360048036038101906106be9190612516565b61168c565b6040516106d09190612ba5565b60405180910390f35b60006301ffc9a760e01b827bffffffffffffffffffffffffffffffffffffffffffffffffffffffff1916148061073457506380ac58cd60e01b827bffffffffffffffffffffffffffffffffffffffffffffffffffffffff1916145b806107645750635b5e139f60e01b827bffffffffffffffffffffffffffffffffffffffffffffffffffffffff1916145b9050919050565b60606002805461077a90612fa8565b80601f01602080910402602001604051908101604052809291908181526020018280546107a690612fa8565b80156107f35780601f106107c8576101008083540402835291602001916107f3565b820191906000526020600020905b8154815290600101906020018083116107d657829003601f168201915b5050505050905090565b6000610808826118ce565b61083e576040517fcf4700e400000000000000000000000000000000000000000000000000000000815260040160405180910390fd5b6006600083815260200190815260200160002060000160009054906101000a900473ffffffffffffffffffffffffffffffffffffffff169050919050565b600061088782610ec2565b90508073ffffffffffffffffffffffffffffffffffffffff166108a861192d565b73ffffffffffffffffffffffffffffffffffffffff161461090b576108d4816108cf61192d565b6114e6565b61090a576040517fcfb3b94200000000000000000000000000000000000000000000000000000000815260040160405180910390fd5b5b826006600084815260200190815260200160002060000160006101000a81548173ffffffffffffffffffffffffffffffffffffffff021916908373ffffffffffffffffffffffffffffffffffffffff160217905550818373ffffffffffffffffffffffffffffffffffffffff168273ffffffffffffffffffffffffffffffffffffffff167f8c5be1e5ebec7d5bd14f71427d1e84f3dd0314c0f7b2291e5b200ac8c7c3b92560405160405180910390a4505050565b600c5481565b60006109d0611935565b6001546000540303905090565b60006109e88261193e565b90508373ffffffffffffffffffffffffffffffffffffffff168173ffffffffffffffffffffffffffffffffffffffff1614610a4f576040517fa114810000000000000000000000000000000000000000000000000000000000815260040160405180910390fd5b600080610a5b84611a0c565b91509150610a718187610a6c61192d565b611a33565b610abd57610a8686610a8161192d565b6114e6565b610abc576040517f59c896be00000000000000000000000000000000000000000000000000000000815260040160405180910390fd5b5b600073ffffffffffffffffffffffffffffffffffffffff168573ffffffffffffffffffffffffffffffffffffffff161415610b24576040517fea553b3400000000000000000000000000000000000000000000000000000000815260040160405180910390fd5b610b318686866001611a77565b8015610b3c57600082555b600560008773ffffffffffffffffffffffffffffffffffffffff1673ffffffffffffffffffffffffffffffffffffffff168152602001908152602001600020600081546001900391905081905550600560008673ffffffffffffffffffffffffffffffffffffffff1673ffffffffffffffffffffffffffffffffffffffff1681526020019081526020016000206000815460010191905081905550610c0a85610be6888887611a7d565b7c020000000000000000000000000000000000000000000000000000000017611aa5565b600460008681526020019081526020016000208190555060007c020000000000000000000000000000000000000000000000000000000084161415610c92576000600185019050600060046000838152602001908152602001600020541415610c90576000548114610c8f578360046000838152602001908152602001600020819055505b5b505b838573ffffffffffffffffffffffffffffffffffffffff168773ffffffffffffffffffffffffffffffffffffffff167fddf252ad1be2c89b69c2b068fc378daa952ba7f163c4a11628f55a4df523b3ef60405160405180910390a4610cfa8686866001611ad0565b505050505050565b610d0a611ad6565b610d12611b54565b6000610d1c610fa1565b73ffffffffffffffffffffffffffffffffffffffff1647604051610d3f90612b29565b60006040518083038185875af1925050503d8060008114610d7c576040519150601f19603f3d011682016040523d82523d6000602084013e610d81565b606091505b5050905080610dc5576040517f08c379a0000000000000000000000000000000000000000000000000000000008152600401610dbc90612ca4565b60405180910390fd5b50610dce611ba4565b565b81600081118015610de35750600e548111155b610e22576040517f08c379a0000000000000000000000000000000000000000000000000000000008152600401610e1990612c84565b60405180910390fd5b600d5481610e2e6109c6565b610e389190612e42565b1115610e79576040517f08c379a0000000000000000000000000000000000000000000000000000000008152600401610e7090612c44565b60405180910390fd5b610e81611ad6565b610e8b8284611bae565b505050565b610eab838383604051806020016040528060008152506112e7565b505050565b610eb8611ad6565b80600c8190555050565b6000610ecd8261193e565b9050919050565b60008073ffffffffffffffffffffffffffffffffffffffff168273ffffffffffffffffffffffffffffffffffffffff161415610f3c576040517f8f4eb60400000000000000000000000000000000000000000000000000000000815260040160405180910390fd5b67ffffffffffffffff600560008473ffffffffffffffffffffffffffffffffffffffff1673ffffffffffffffffffffffffffffffffffffffff16815260200190815260200160002054169050919050565b610f95611ad6565b610f9f6000611bcc565b565b6000600860009054906101000a900473ffffffffffffffffffffffffffffffffffffffff16905090565b606060038054610fda90612fa8565b80601f016020809104026020016040519081016040528092919081815260200182805461100690612fa8565b80156110535780601f1061102857610100808354040283529160200191611053565b820191906000526020600020905b81548152906001019060200180831161103657829003601f168201915b5050505050905090565b611065611ad6565b80600a908051906020019061107b92919061232a565b5050565b611087611ad6565b80600e8190555050565b806000811180156110a45750600e548111155b6110e3576040517f08c379a00000000000000000000000000000000000000000000000000000000081526004016110da90612c84565b60405180910390fd5b600d54816110ef6109c6565b6110f99190612e42565b111561113a576040517f08c379a000000000000000000000000000000000000000000000000000000000815260040161113190612c44565b60405180910390fd5b81611143610fa1565b73ffffffffffffffffffffffffffffffffffffffff163373ffffffffffffffffffffffffffffffffffffffff16146111c65780600c546111839190612e98565b3410156111c5576040517f08c379a00000000000000000000000000000000000000000000000000000000081526004016111bc90612ce4565b60405180910390fd5b5b6111d76111d1611c92565b84611bae565b505050565b80600760006111e961192d565b73ffffffffffffffffffffffffffffffffffffffff1673ffffffffffffffffffffffffffffffffffffffff16815260200190815260200160002060008473ffffffffffffffffffffffffffffffffffffffff1673ffffffffffffffffffffffffffffffffffffffff16815260200190815260200160002060006101000a81548160ff0219169083151502179055508173ffffffffffffffffffffffffffffffffffffffff1661129661192d565b73ffffffffffffffffffffffffffffffffffffffff167f17307eab39ab6107e8899845ad3d59bd9653f200f220920489ca2b5937696c31836040516112db9190612bc7565b60405180910390a35050565b6112f28484846109dd565b60008373ffffffffffffffffffffffffffffffffffffffff163b146113545761131d84848484611c9a565b611353576040517fd1a57ed600000000000000000000000000000000000000000000000000000000815260040160405180910390fd5b5b50505050565b6060611365826118ce565b6113a4576040517f08c379a000000000000000000000000000000000000000000000000000000000815260040161139b90612c04565b60405180910390fd5b60006113ae611dfa565b905060008151116113f4576040518060400160405280600181526020017f2000000000000000000000000000000000000000000000000000000000000000815250611422565b806113fe84611e8c565b600b60405160200161141293929190612af8565b6040516020818303038152906040525b915050919050565b600b805461143790612fa8565b80601f016020809104026020016040519081016040528092919081815260200182805461146390612fa8565b80156114b05780601f10611485576101008083540402835291602001916114b0565b820191906000526020600020905b81548152906001019060200180831161149357829003601f168201915b505050505081565b6114c0611ad6565b80600b90805190602001906114d692919061232a565b5050565b600d5481565b600e5481565b6000600760008473ffffffffffffffffffffffffffffffffffffffff1673ffffffffffffffffffffffffffffffffffffffff16815260200190815260200160002060008373ffffffffffffffffffffffffffffffffffffffff1673ffffffffffffffffffffffffffffffffffffffff16815260200190815260200160002060009054906101000a900460ff16905092915050565b600a805461158790612fa8565b80601f01602080910402602001604051908101604052809291908181526020018280546115b390612fa8565b80156116005780601f106115d557610100808354040283529160200191611600565b820191906000526020600020905b8154815290600101906020018083116115e357829003601f168201915b505050505081565b611610611ad6565b600073ffffffffffffffffffffffffffffffffffffffff168173ffffffffffffffffffffffffffffffffffffffff161415611680576040517f08c379a000000000000000000000000000000000000000000000000000000000815260040161167790612c24565b60405180910390fd5b61168981611bcc565b50565b6060600061169983610ed4565b905060008167ffffffffffffffff8111156116b7576116b6613110565b5b6040519080825280602002602001820160405280156116e55781602001602082028036833780820191505090505b50905060006116f2611935565b90506000805b8482108015611708575060105483105b156118c1576000600f8481548110611723576117226130e1565b5b906000526020600020016040518060800160405290816000820160009054906101000a900473ffffffffffffffffffffffffffffffffffffffff1673ffffffffffffffffffffffffffffffffffffffff1673ffffffffffffffffffffffffffffffffffffffff1681526020016000820160149054906101000a900467ffffffffffffffff1667ffffffffffffffff1667ffffffffffffffff16815260200160008201601c9054906101000a900460ff1615151515815260200160008201601d9054906101000a900462ffffff1662ffffff1662ffffff1681525050905080604001516118ad57600073ffffffffffffffffffffffffffffffffffffffff16816000015173ffffffffffffffffffffffffffffffffffffffff161461184957806000015191505b8773ffffffffffffffffffffffffffffffffffffffff168273ffffffffffffffffffffffffffffffffffffffff1614156118ac5783858481518110611891576118906130e1565b5b60200260200101818152505082806118a89061300b565b9350505b5b83806118b89061300b565b945050506116f8565b8395505050505050919050565b6000816118d9611935565b111580156118e8575060005482105b8015611926575060007c0100000000000000000000000000000000000000000000000000000000600460008581526020019081526020016000205416145b9050919050565b600033905090565b60006001905090565b6000808290508061194d611935565b116119d5576000548110156119d45760006004600083815260200190815260200160002054905060007c0100000000000000000000000000000000000000000000000000000000821614156119d2575b60008114156119c857600460008360019003935083815260200190815260200160002054905061199d565b8092505050611a07565b505b5b6040517fdf2d9b4200000000000000000000000000000000000000000000000000000000815260040160405180910390fd5b919050565b60008060006006600085815260200190815260200160002090508092508254915050915091565b600073ffffffffffffffffffffffffffffffffffffffff8316925073ffffffffffffffffffffffffffffffffffffffff821691508382148383141790509392505050565b50505050565b60008060e883901c905060e8611a94868684611f64565b62ffffff16901b9150509392505050565b600073ffffffffffffffffffffffffffffffffffffffff83169250814260a01b178317905092915050565b50505050565b611ade611c92565b73ffffffffffffffffffffffffffffffffffffffff16611afc610fa1565b73ffffffffffffffffffffffffffffffffffffffff1614611b52576040517f08c379a0000000000000000000000000000000000000000000000000000000008152600401611b4990612c64565b60405180910390fd5b565b60026009541415611b9a576040517f08c379a0000000000000000000000000000000000000000000000000000000008152600401611b9190612cc4565b60405180910390fd5b6002600981905550565b6001600981905550565b611bc8828260405180602001604052806000815250611f6d565b5050565b6000600860009054906101000a900473ffffffffffffffffffffffffffffffffffffffff16905081600860006101000a81548173ffffffffffffffffffffffffffffffffffffffff021916908373ffffffffffffffffffffffffffffffffffffffff1602179055508173ffffffffffffffffffffffffffffffffffffffff168173ffffffffffffffffffffffffffffffffffffffff167f8be0079c531659141344cd1fd0a4f28419497f9722a3daafe3b4186f6b6457e060405160405180910390a35050565b600033905090565b60008373ffffffffffffffffffffffffffffffffffffffff1663150b7a02611cc061192d565b8786866040518563ffffffff1660e01b8152600401611ce29493929190612b59565b602060405180830381600087803b158015611cfc57600080fd5b505af1925050508015611d2d57506040513d601f19601f82011682018060405250810190611d2a9190612706565b60015b611da7573d8060008114611d5d576040519150601f19603f3d011682016040523d82523d6000602084013e611d62565b606091505b50600081511415611d9f576040517fd1a57ed600000000000000000000000000000000000000000000000000000000815260040160405180910390fd5b805181602001fd5b63150b7a0260e01b7bffffffffffffffffffffffffffffffffffffffffffffffffffffffff1916817bffffffffffffffffffffffffffffffffffffffffffffffffffffffff191614915050949350505050565b6060600a8054611e0990612fa8565b80601f0160208091040260200160405190810160405280929190818152602001828054611e3590612fa8565b8015611e825780601f10611e5757610100808354040283529160200191611e82565b820191906000526020600020905b815481529060010190602001808311611e6557829003601f168201915b5050505050905090565b606060006001611e9b8461200a565b01905060008167ffffffffffffffff811115611eba57611eb9613110565b5b6040519080825280601f01601f191660200182016040528015611eec5781602001600182028036833780820191505090505b509050600082602001820190505b600115611f59578080600190039150507f3031323334353637383961626364656600000000000000000000000000000000600a86061a8153600a8581611f4357611f42613083565b5b0494506000851415611f5457611f59565b611efa565b819350505050919050565b60009392505050565b611f77838361215d565b60008373ffffffffffffffffffffffffffffffffffffffff163b1461200557600080549050600083820390505b611fb76000868380600101945086611c9a565b611fed576040517fd1a57ed600000000000000000000000000000000000000000000000000000000815260040160405180910390fd5b818110611fa457816000541461200257600080fd5b50505b505050565b600080600090507a184f03e93ff9f4daa797ed6e38ed64bf6a1f0100000000000000008310612068577a184f03e93ff9f4daa797ed6e38ed64bf6a1f010000000000000000838161205e5761205d613083565b5b0492506040810190505b6d04ee2d6d415b85acef810000000083106120a5576d04ee2d6d415b85acef8100000000838161209b5761209a613083565b5b0492506020810190505b662386f26fc1000083106120d457662386f26fc1000083816120ca576120c9613083565b5b0492506010810190505b6305f5e10083106120fd576305f5e10083816120f3576120f2613083565b5b0492506008810190505b612710831061212257612710838161211857612117613083565b5b0492506004810190505b60648310612145576064838161213b5761213a613083565b5b0492506002810190505b600a8310612154576001810190505b80915050919050565b600080549050600082141561219e576040517fb562e8dd00000000000000000000000000000000000000000000000000000000815260040160405180910390fd5b6121ab6000848385611a77565b600160406001901b178202600560008573ffffffffffffffffffffffffffffffffffffffff1673ffffffffffffffffffffffffffffffffffffffff16815260200190815260200160002060008282540192505081905550612222836122136000866000611a7d565b61221c8561231a565b17611aa5565b6004600083815260200190815260200160002081905550600080838301905073ffffffffffffffffffffffffffffffffffffffff85169150828260007fddf252ad1be2c89b69c2b068fc378daa952ba7f163c4a11628f55a4df523b3ef600080a4600183015b8181146122c357808360007fddf252ad1be2c89b69c2b068fc378daa952ba7f163c4a11628f55a4df523b3ef600080a4600181019050612288565b5060008214156122ff576040517f2e07630000000000000000000000000000000000000000000000000000000000815260040160405180910390fd5b8060008190555050506123156000848385611ad0565b505050565b60006001821460e11b9050919050565b82805461233690612fa8565b90600052602060002090601f016020900481019282612358576000855561239f565b82601f1061237157805160ff191683800117855561239f565b8280016001018555821561239f579182015b8281111561239e578251825591602001919060010190612383565b5b5090506123ac91906123b0565b5090565b5b808211156123c95760008160009055506001016123b1565b5090565b60006123e06123db84612d44565b612d1f565b9050828152602081018484840111156123fc576123fb613144565b5b612407848285612f66565b509392505050565b600061242261241d84612d75565b612d1f565b90508281526020810184848401111561243e5761243d613144565b5b612449848285612f66565b509392505050565b60008135905061246081613321565b92915050565b60008135905061247581613338565b92915050565b60008135905061248a8161334f565b92915050565b60008151905061249f8161334f565b92915050565b600082601f8301126124ba576124b961313f565b5b81356124ca8482602086016123cd565b91505092915050565b600082601f8301126124e8576124e761313f565b5b81356124f884826020860161240f565b91505092915050565b60008135905061251081613366565b92915050565b60006020828403121561252c5761252b61314e565b5b600061253a84828501612451565b91505092915050565b6000806040838503121561255a5761255961314e565b5b600061256885828601612451565b925050602061257985828601612451565b9150509250929050565b60008060006060848603121561259c5761259b61314e565b5b60006125aa86828701612451565b93505060206125bb86828701612451565b92505060406125cc86828701612501565b9150509250925092565b600080600080608085870312156125f0576125ef61314e565b5b60006125fe87828801612451565b945050602061260f87828801612451565b935050604061262087828801612501565b925050606085013567ffffffffffffffff81111561264157612640613149565b5b61264d878288016124a5565b91505092959194509250565b600080604083850312156126705761266f61314e565b5b600061267e85828601612451565b925050602061268f85828601612466565b9150509250929050565b600080604083850312156126b0576126af61314e565b5b60006126be85828601612451565b92505060206126cf85828601612501565b9150509250929050565b6000602082840312156126ef576126ee61314e565b5b60006126fd8482850161247b565b91505092915050565b60006020828403121561271c5761271b61314e565b5b600061272a84828501612490565b91505092915050565b6000602082840312156127495761274861314e565b5b600082013567ffffffffffffffff81111561276757612766613149565b5b612773848285016124d3565b91505092915050565b6000602082840312156127925761279161314e565b5b60006127a084828501612501565b91505092915050565b600080604083850312156127c0576127bf61314e565b5b60006127ce85828601612501565b92505060206127df85828601612451565b9150509250929050565b60006127f58383612ada565b60208301905092915050565b61280a81612ef2565b82525050565b600061281b82612dcb565b6128258185612df9565b935061283083612da6565b8060005b8381101561286157815161284888826127e9565b975061285383612dec565b925050600181019050612834565b5085935050505092915050565b61287781612f04565b82525050565b600061288882612dd6565b6128928185612e0a565b93506128a2818560208601612f75565b6128ab81613153565b840191505092915050565b60006128c182612de1565b6128cb8185612e26565b93506128db818560208601612f75565b6128e481613153565b840191505092915050565b60006128fa82612de1565b6129048185612e37565b9350612914818560208601612f75565b80840191505092915050565b6000815461292d81612fa8565b6129378186612e37565b94506001821660008114612952576001811461296357612996565b60ff19831686528186019350612996565b61296c85612db6565b60005b8381101561298e5781548189015260018201915060208101905061296f565b838801955050505b50505092915050565b60006129ac602c83612e26565b91506129b782613164565b604082019050919050565b60006129cf602683612e26565b91506129da826131b3565b604082019050919050565b60006129f2601683612e26565b91506129fd82613202565b602082019050919050565b6000612a15602083612e26565b9150612a208261322b565b602082019050919050565b6000612a38601883612e26565b9150612a4382613254565b602082019050919050565b6000612a5b600083612e1b565b9150612a668261327d565b600082019050919050565b6000612a7e602383612e26565b9150612a8982613280565b604082019050919050565b6000612aa1601f83612e26565b9150612aac826132cf565b602082019050919050565b6000612ac4601583612e26565b9150612acf826132f8565b602082019050919050565b612ae381612f5c565b82525050565b612af281612f5c565b82525050565b6000612b0482866128ef565b9150612b1082856128ef565b9150612b1c8284612920565b9150819050949350505050565b6000612b3482612a4e565b9150819050919050565b6000602082019050612b536000830184612801565b92915050565b6000608082019050612b6e6000830187612801565b612b7b6020830186612801565b612b886040830185612ae9565b8181036060830152612b9a818461287d565b905095945050505050565b60006020820190508181036000830152612bbf8184612810565b905092915050565b6000602082019050612bdc600083018461286e565b92915050565b60006020820190508181036000830152612bfc81846128b6565b905092915050565b60006020820190508181036000830152612c1d8161299f565b9050919050565b60006020820190508181036000830152612c3d816129c2565b9050919050565b60006020820190508181036000830152612c5d816129e5565b9050919050565b60006020820190508181036000830152612c7d81612a08565b9050919050565b60006020820190508181036000830152612c9d81612a2b565b9050919050565b60006020820190508181036000830152612cbd81612a71565b9050919050565b60006020820190508181036000830152612cdd81612a94565b9050919050565b60006020820190508181036000830152612cfd81612ab7565b9050919050565b6000602082019050612d196000830184612ae9565b92915050565b6000612d29612d3a565b9050612d358282612fda565b919050565b6000604051905090565b600067ffffffffffffffff821115612d5f57612d5e613110565b5b612d6882613153565b9050602081019050919050565b600067ffffffffffffffff821115612d9057612d8f613110565b5b612d9982613153565b9050602081019050919050565b6000819050602082019050919050565b60008190508160005260206000209050919050565b600081519050919050565b600081519050919050565b600081519050919050565b6000602082019050919050565b600082825260208201905092915050565b600082825260208201905092915050565b600081905092915050565b600082825260208201905092915050565b600081905092915050565b6000612e4d82612f5c565b9150612e5883612f5c565b9250827fffffffffffffffffffffffffffffffffffffffffffffffffffffffffffffffff03821115612e8d57612e8c613054565b5b828201905092915050565b6000612ea382612f5c565b9150612eae83612f5c565b9250817fffffffffffffffffffffffffffffffffffffffffffffffffffffffffffffffff0483118215151615612ee757612ee6613054565b5b828202905092915050565b6000612efd82612f3c565b9050919050565b60008115159050919050565b60007fffffffff0000000000000000000000000000000000000000000000000000000082169050919050565b600073ffffffffffffffffffffffffffffffffffffffff82169050919050565b6000819050919050565b82818337600083830152505050565b60005b83811015612f93578082015181840152602081019050612f78565b83811115612fa2576000848401525b50505050565b60006002820490506001821680612fc057607f821691505b60208210811415612fd457612fd36130b2565b5b50919050565b612fe382613153565b810181811067ffffffffffffffff8211171561300257613001613110565b5b80604052505050565b600061301682612f5c565b91507fffffffffffffffffffffffffffffffffffffffffffffffffffffffffffffffff82141561304957613048613054565b5b600182019050919050565b7f4e487b7100000000000000000000000000000000000000000000000000000000600052601160045260246000fd5b7f4e487b7100000000000000000000000000000000000000000000000000000000600052601260045260246000fd5b7f4e487b7100000000000000000000000000000000000000000000000000000000600052602260045260246000fd5b7f4e487b7100000000000000000000000000000000000000000000000000000000600052603260045260246000fd5b7f4e487b7100000000000000000000000000000000000000000000000000000000600052604160045260246000fd5b600080fd5b600080fd5b600080fd5b600080fd5b6000601f19601f8301169050919050565b7f455243373231204d657461646174613a206e6f7420646566696e656420666f7260008201527f207468697320746f6b656e210000000000000000000000000000000000000000602082015250565b7f4f776e61626c653a206e6577206f776e657220697320746865207a65726f206160008201527f6464726573730000000000000000000000000000000000000000000000000000602082015250565b7f4d617820737570706c7920686173207061737365642e00000000000000000000600082015250565b7f4f776e61626c653a2063616c6c6572206973206e6f7420746865206f776e6572600082015250565b7f496e76616c6964206e756d62657220666f72206d696e74210000000000000000600082015250565b50565b7f5765206861766520736f6d652070726f626c656d2066726f6d2077697468647260008201527f6177210000000000000000000000000000000000000000000000000000000000602082015250565b7f5265656e7472616e637947756172643a207265656e7472616e742063616c6c00600082015250565b7f496e73756666696369656e742042616c616e6365210000000000000000000000600082015250565b61332a81612ef2565b811461333557600080fd5b50565b61334181612f04565b811461334c57600080fd5b50565b61335881612f10565b811461336357600080fd5b50565b61336f81612f5c565b811461337a57600080fd5b5056fea2646970667358221220f30ccfb6a51e1618a650acb026e461d8cca2c5d3c7e45789cd0a35de60f5fd8464736f6c63430008070033697066733a2f2f516d64787546694472436a6339545a7963726f787069596a48654b57584d724a6d5a7748513248533354626e57572f",
    "linkReferences": {},
    "deployedLinkReferences": {}
}